:020000040800F2
:1000000000000220192C0008192800081B280008ED
:100010001D2800081F2800082128000800000000F3
:10002000000000000000000000000000232800087D
:1000300025280008000000002728000829280008BB
:10004000692C0008692C0008692C0008692C00083C
:10005000692C0008692C0008692C0008692C00082C
:10006000692C0008692C0008692C0008692C00081C
:10007000692C0008692C0008692C0008692C00080C
:10008000692C0008692C0008692C00080000000099
:10009000000000000000000000000000692C0008C3
:1000A000692C00082D280008692C0008692C00081C
:1000B000692C0008692C0008692C0008692C0008CC
:1000C000692C0008692C0008692C0008692C0008BC
:1000D000692C0008692C0008692C00080000000049
:1000E000692C0008692C0008692C00080000000039
:1000F000000000000000000000000000692C000863
:1001000000000000692C0008692C0008692C000818
:1001100000000000000000000000000000000000DF
:1001200049280008692C0008692C0008692C00087F
:10013000692C000800000000000000000000000022
:10014000000000000000000000000000692C000812
:10015000692C0008692C0008692C0008692C00082B
:10016000692C0008692C0008000000000000000055
:10017000000000000000000000000000000000007F
:1001800000000000692C00080000000000000000D2
:08019000692C0008692C00082D
:1001980010B5054C237833B9044B13B10448AFF3B9
:1001A80000800123237010BD14000020000000000F
:1001B800502D000808B5034B1BB103490348AFF3A2
:1001C800008008BD0000000018000020502D000825
:1001D80081F0004102E000BF83F0004330B54FEAF0
:1001E80041044FEA430594EA050F08BF90EA020F5D
:1001F8001FBF54EA000C55EA020C7FEA645C7FEAF0
:10020800655C00F0E2804FEA5454D4EB5555B8BF12
:100218006D420CDD2C4480EA020281EA030382EA83
:10022800000083EA010180EA020281EA0303362D15
:1002380088BF30BD11F0004F4FEA01314FF4801CE8
:100248004CEA113102D0404261EB410113F0004FFA
:100258004FEA03334CEA133302D0524263EB4303B1
:1002680094EA050F00F0A780A4F10104D5F1200E4F
:100278000DDB02FA0EFC22FA05F2801841F10001AA
:1002880003FA0EF2801843FA05F359410EE0A5F17E
:1002980020050EF1200E012A03FA0EFC28BF4CF0AF
:1002A800020C43FA05F3C01851EBE37101F0004565
:1002B80007D54FF0000EDCF1000C7EEB00006EEB72
:1002C8000101B1F5801F1BD3B1F5001F0CD34908FC
:1002D8005FEA30004FEA3C0C04F101044FEA445253
:1002E80012F5800F80F09A80BCF1004F08BF5FEADA
:1002F800500C50F1000041EB045141EA050130BDBA
:100308005FEA4C0C404141EB010111F4801FA4F15C
:100318000104E9D191F0000F04BF01460020B1FAB1
:1003280081F308BF2033A3F10B03B3F120020CDAE9
:100338000C3208DD02F1140CC2F10C0201FA0CF0C7
:1003480021FA02F10CE002F11402D8BFC2F1200C2C
:1003580001FA02F120FA0CFCDCBF41EA0C019040E2
:10036800E41AA2BF01EB0451294330BD6FEA04042B
:100378001F3C1CDA0C340EDC04F11404C4F1200216
:1003880020FA04F001FA02F340EA030021FA04F328
:1003980045EA030130BDC4F10C04C4F1200220FA7F
:1003A80002F001FA04F340EA0300294630BD21FABD
:1003B80004F0294630BD94F0000F83F4801306BF83
:1003C80081F480110134013D4EE77FEA645C18BF77
:1003D8007FEA655C29D094EA050F08BF90EA020F0E
:1003E80005D054EA000C04BF1946104630BD91EA06
:1003F800030F1EBF0021002030BD5FEA545C05D109
:100408004000494128BF41F0004130BD14F5800447
:100418003CBF01F5801130BD01F0004545F0FE41BB
:1004280041F470014FF0000030BD7FEA645C1ABFF0
:10043800194610467FEA655C1CBF0B46024650EA27
:10044800013406BF52EA033591EA030F41F4002153
:1004580030BD00BF90F0000F04BF0021704730B5D9
:100468004FF4806404F132044FF000054FF00001AE
:1004780050E700BF90F0000F04BF0021704730B56F
:100488004FF4806404F1320410F0004548BF404244
:100498004FF000013EE700BF42004FEAE2014FEA99
:1004A80031014FEA02701FBF12F07F4393F07F4F74
:1004B80081F06051704792F0000F14BF93F07F4FA6
:1004C800704730B54FF4607401F0004521F00041E9
:1004D80020E700BF50EA010208BF704730B54FF06F
:1004E80000050AE050EA010208BF704730B511F074
:1004F800004502D5404261EB41014FF4806404F1AC
:1005080032045FEA915C3FF4DCAE4FF003025FEA2D
:10051800DC0C18BF03325FEADC0C18BF033202EBB5
:10052800DC02C2F1200300FA03FC20FA02F001FA0F
:1005380003FE40EA0E0021FA02F11444C1E600BFAE
:100548004FEA410212F5001215D211D56FF47873F3
:10055800B3EB625212D94FEAC12343F0004343EA96
:10056800505311F0004F23FA02F018BF4042704771
:100578004FF00000704750EA013005D111F00040FB
:1005880008BF6FF0004070474FF00000704700BF91
:100598004FEA4102B2F1E04324BFB3F5001CDCF19D
:1005A800FE5C0DD901F0004C4FEAC0024CEA5070D5
:1005B800B2F1004F40EB830008BF20F00100704704
:1005C80011F0804F21D113F13872BCBF01F0004007
:1005D800704741F480114FEA5252C2F11802C2F139
:1005E800200C10FA0CF320FA02F018BF40F00100BA
:1005F8004FEAC1234FEAD32303FA0CFC40EA0C006C
:1006080023FA02F34FEA4303CCE77FEA625307D1A8
:1006180050EA01331EBF4FF0FE4040F440007047DF
:1006280001F0004040F0FE4040F40000704700BF79
:1006380053B94AB9002908BF00281CBF4FF0FF3141
:100648004FF0FF3000F07AB9ADF1080C6DE904CE37
:1006580000F006F8DDF804E0DDE9022304B0704795
:100668002DE9F0478C460D460446089E002B51D1D3
:100678008A4217466DD9B2FA82FEBEF1000F0BD03E
:10068800CEF1200C01FA0EF520FA0CFC02FA0EF756
:100698004CEA050C00FA0EF44FEA174A250CBCFB8D
:1006A800FAF81FFA87F90AFB18CC45EA0C4508FB4B
:1006B80009F3AB420AD9ED1908F1FF3280F0238122
:1006C800AB4240F22081A8F102083D44ED1AA4B2E1
:1006D800B5FBFAF00AFB105544EA054400FB09F99A
:1006E800A14509D9E41900F1FF3380F00A81A14539
:1006F80040F2078102383C44A4EB090440EA084070
:100708000021002E61D024FA0EF4002334607360B7
:10071800BDE8F0878B4207D9002E54D0002186E827
:1007280021000846BDE8F087B3FA83F1002940F0BC
:100738008E80AB4202D3824200F2FA80841A65EBC3
:1007480003050120AC46002E3FD086E81010BDE816
:10075800F08712B90127B7FBF2F7B7FA87FEBEF1A7
:10076800000F34D1EB1B3A0C1FFA87FC0121B3FBB5
:10077800F2F8250C02FB183345EA03450CFB08F395
:10078800AB4207D9ED1908F1FF3002D2AB4200F2B3
:10079800D1808046ED1AA3B2B5FBF2F002FB1055EA
:1007A80043EA05440CFB00FCA44507D9E41900F111
:1007B800FF3302D2A44500F2B8801846A4EB0C041B
:1007C80040EA08409DE731463046BDE8F087CEF163
:1007D800200405FA0EF307FA0EF720FA04F83A0C8B
:1007E80025FA04F448EA0308B4FBF2F14FEA184585
:1007F80002FB11441FFA87FC45EA044501FB0CF390
:10080800AB4200FA0EF409D9ED1901F1FF3080F07E
:100818008A80AB4240F2878002393D44EB1A1FFAC6
:1008280088F5B3FBF2F002FB103345EA034500FB01
:100838000CF3AB4207D9ED1900F1FF386FD2AB4288
:100848006DD902383D44EB1A40EA01418FE7C1F106
:10085800200722FA07F88B4005FA01F448EA030357
:1008680020FA07FE4FEA134CFD404EEA040EB5FB92
:10087800FCF94FEA1E440CFB19551FFA83F844EAA9
:10088800054509FB08F4AC4202FA01F200FA01FA44
:1008980008D9ED1809F1FF3043D2AC4241D9A9F18A
:1008A80002091D442D1B1FFA8EFEB5FBFCF00CFB44
:1008B80010554EEA054400FB08F8A04507D9E4188E
:1008C80000F1FF3529D2A04527D902381C4440EA57
:1008D8000940A4EB0804A0FB02894C45C6464D46D6
:1008E80015D312D056B1BAEB0E0364EB050404FA23
:1008F80007F7CB401F43CC40376074600021BDE848
:10090800F0871846F8E69046E0E6C245EAD2B8EB2A
:10091800020E69EB03050138E4E72846D7E74046AD
:1009280091E78146BEE7014678E702383C4445E74F
:10093800084608E7A8F102083D442BE7704700BFC6
:1009480038B50E4A0E4B054618784FF47A73B3FB48
:10095800F0F31068B0FBF3F000F0A8FA044658B9B9
:100968000F2D09D8024629464FF0FF3000F05CFAF7
:10097800044B20461D6038BD012038BD1000002002
:10098800000000200400002008B50B4B1A6842F450
:1009980000721A601A6842F480621A601A6842F497
:1009A80080721A60032000F02DFA0020FFF7C8FFBC
:1009B80001F012FF002008BD003C0240034A044B2E
:1009C80011681B780B441360704700BF4400002077
:1009D80000000020014B1868704700BF4400002049
:1009E80038B50446002800F09B80056C25B901F055
:1009F800A7FB656484F83C50236CDB0600F18E800D
:100A0800236C23F4885323F0020343F00203236486
:100A1800444B5A6822F440325A605A6861680A4363
:100A28005A60236821695A6822F480725A605A68A9
:100A380042EA01225A605A68A16822F040725A605C
:100A48005A680A435A609A68E16822F400629A6018
:100A58009A680A439A603449A26A8A4252D09968CD
:100A680021F07061996099680A439A609A68E16A0E
:100A780022F040529A609A680A439A609A68217EE6
:100A880022F002029A609A6842EA41029A6094F857
:100A98002020002A3ED05A68616A42F400625A60F7
:100AA8005A6822F460425A605A68013942EA41326F
:100AB8005A60DA6AE16922F47002DA62DA6A0139A4
:100AC80042EA0152DA629A6894F8301022F400720D
:100AD8009A609A6842EA41229A609A68616922F4A7
:100AE80080629A609A68002042EA81229A60606473
:100AF800236C23F0030343F001032364002384F8E9
:100B08003C3038BD9A6822F070629A609A6822F088
:100B18004052B2E75A6822F40062C9E70120EDE7C3
:100B2800012038BD002301400100000F37B51346EE
:100B38000022019290F83C20012A044665D00568FD
:100B4800012280F83C20AA68D20705D5AA68D007F8
:100B580015D4002003B030BDAA6842F00102AA6093
:100B68002B4A10682B4AB0FBF2F000EB40000190D2
:100B7800019A002AEAD0019A013A0192F8E7206C1A
:100B880020F4E06020F0010040F4807020646A687E
:100B9800520541BF206C20F4405040F4805020643E
:100BA800226CA06B12F480521CBF626C22F0060209
:100BB8006264002284F83C20174AC263174A026420
:100BC800174AC2646FF022022A606A6842F08062A3
:100BD8006A60AA6842F48072AA600A4605F14C016C
:100BE80000F00EFA0F4B5B6813F01F0F236808D153
:100BF800986810F04050ACD19A6842F080429A60F0
:100C0800A8E7094A9342A4D1F2E70220A2E700BF6D
:100C18001000002040420F005B0C0008390C00084F
:100C2800450C000800230140002001407047704730
:100C380008B5806BFFF7FBFF08BD7047806B08B5F0
:100C480040230364436C43F004034364FFF7F5FF58
:100C580008BD836B1A6C12F0500F10B51A6C23D1B3
:100C680042F400721A641A68916811F0405F17D153
:100C7800197EA9B9D16A11F4700F02D0916848059C
:100C88000ED4516821F0200151601A6C22F4807250
:100C98001A641A6CD1045EBF1A6C42F001021A641D
:100CA8001846FFF7C3FF10BDD20603D51846FFF755
:100CB800C4FF10BD9B6BBDE81040DB6C18470000FB
:100CC800F7B50023019390F83C30012B6ED00D68E6
:100CD80004688A680123092D80F83C30AEB22AD90D
:100CE80006EB4603E7681E3B4FF0070E0EFA03FEBD
:100CF80027EA0E07E760E76802FA03F33B43E3607D
:100D08004A68062A4FEA820325D81344676B591F9D
:100D18001F238B4027EA03036363626B06FA01F122
:100D280011436163324B9C4234D0002380F83C303D
:100D3800184603B0F0BD276905EB45034FF0070ED1
:100D48000EFA03FE27EA0E072761276902FA03F362
:100D58003B432361D4E70C2A0ED81344216BA3F13B
:100D680023021F23934021EA03032363236B06FA1C
:100D780002F21A432263D5E71344E16A413B1F227A
:100D88009A4021EA0202E262E26A06FA03F111439A
:100D9800E162C7E7122D0BD1164B5A6822F4000204
:100DA8005A605A6842F480025A60BEE70220C0E7DF
:100DB800114B9D4201D0112DB7D10E4B5A6822F428
:100DC80080025A605A6842F400025A600A4B9D42F7
:100DD800ABD10A4B0A4A1B68B3FBF2F20A2353430E
:100DE8000193019B002BA0D0019B013BF8E700BFBA
:100DF80000200140002301401200001010000020D4
:100E080040420F00074AD36823F4E0631B041B0C1D
:100E180043F0BF63000243F4003300F4E06003438F
:100E2800D360704700ED00E0174B30B5DC68C4F3C1
:100E38000224C4F10703251D042B28BF0423062D13
:100E48004FF0010505FA03F303F1FF338CBF033CB0
:100E580000241940A14005FA04F4013C224000286E
:100E680042EA01024FEA0212ADBF00F1604000F011
:100E78000F00064B00F56140B5BFD2B2D2B21A548A
:100E880080F8002330BD00BF00ED00E014ED00E065
:100E9800002808DB4209012300F01F0003FA00F0D4
:100EA800014B43F82200704700E100E00138B0F13F
:100EB800807F0AD2064B074A5860F02182F8231037
:100EC8000020072298601A6070470120704700BF11
:100ED80010E000E000ED00E00368DAB223F47F736D
:100EE80023F003031821103AB2FBF1F20449032A54
:100EF80088BF0433895C8365C165806D704700BF16
:100F0800682D000870B50446FFF764FD0546002CFF
:100F180071D0002384F834302268022384F83530F5
:100F2800136823F00103136021680B68D8073CD4C9
:100F38000B68324D6268A0691D40A3681343E268DC
:100F480013432269134362691343E269034313435A
:100F5800226A1343626A042A43EA050301BF266B27
:100F6800E56A35432B430B604B69042A23F00703DA
:100F780043EA02030BD1A26AE56A13433DB1F8B90B
:100F8800012A2DD001D3022A01D1EA012BD44B61C9
:100F98002046FFF7A1FFE26D3F23934083600020C6
:100FA8000123606584F8353070BDFFF713FD401BE1
:100FB8000528B9D920236365032084F8350070BD5E
:100FC800B0F5005F13D1032AE1D801A050F822F050
:100FD800EF0F0008930F0008EF0F0008E90F000853
:100FE800B5F1C07FD3D1402363650120E5E7022A2C
:100FF800F9D9032AC8E7012070BD00BF3F8010F06F
:1010080070B590F83440012C32D0012480F8344077
:1010180090F83540866D012C4FF000054FF0020422
:1010280024D180F8354004684565256825F4802575
:10103800256063608368402B0EBFA260A160E260F8
:10104800C26D08BFE1603F239340B360236843F05B
:1010580016032360036C1BB1236843F00803236065
:10106800236843F001032360002070BD80F83450EA
:10107800022070BDF7B5002301935A4B856D1F6898
:10108800C36D2E6808229A40164204460CD00168A7
:101098000868400708D5086820F004000860AA60BE
:1010A800626D42F00102626501229A40164208D040
:1010B80021684969090641BFAA60626D42F00202CF
:1010C800626504229A40164208D021680968880798
:1010D80041BFAA60626D42F00402626510229A4024
:1010E800164210D02368196809070CD5AA601A6837
:1010F800500335D51B68190301D4236C00E0A36C99
:101108000BB120469847E16D20228A40164238D01C
:1011180023681868C60634D5AA6094F83520052ACD
:101128001A6825D122F016021A605A6922F0800244
:101138005A61226C0AB9A26C1AB11A6822F0080224
:101148001A603F238B40AB60002384F834300123BE
:1011580084F83530236D0BB12046984703B0F0BDB5
:101168001A68D2055EBF1A6822F008021A60C4E73E
:10117800500328D51B68190332D4636C0BB1204681
:101188009847636D002BE9D0636DDA0719D50523FD
:10119800226884F83530136823F0010313604FF494
:1011A8001653B7FBF3F7019B01339F42019302D318
:1011B8001368DB07F7D4002384F83430012384F85C
:1011C8003530E36CC7E71A6812F4807208D11968E1
:1011D80021F010011960012384F8342084F8353097
:1011E800E36BCBE7100000202DE9F04F85B00B68CA
:1011F800DFF88C81604A01934FF001090023019DBB
:1012080009FA03F42540AC4240F0A6804C6824F06B
:10121800100C0CF1FF36012E4FEA430E12D88768E6
:10122800032606FA0EF627EA0607CE6806FA0EF631
:101238003E4386604768C4F3001627EA05079E40C8
:101248003E4346600326C76806FA0EF6F64307EAE9
:10125800060A8F6807FA0EF747EA0A07BCF1020F79
:10126800C76016D14FEAD30A00EB8A0A03F0070BCE
:10127800DAF820704FEA8B0B4FF00F0C0CFA0BFCCE
:1012880027EA0C0C0F6907FA0BF747EA0C07CAF8AC
:10129800207007683E4004F0030707FA0EFE4EEA86
:1012A80006060660E60057D54FF0000BCDF80CB0E7
:1012B800D8F84470314E47F48047C8F84470D8F8DD
:1012C800447007F480470397039F23F0030707F14F
:1012D800804707F59C3703F0030CD7F808A04FEABE
:1012E8008C0C4FF00F0E0EFA0CFEB0422AEA0E0ECE
:1012F80039D006F58066B04237D006F58066B04230
:1013080035D006F58066B04233D006F58066B04227
:1013180014BF0726042606FA0CF646EA0E06BE6037
:101328001668EF4314F4803F0CBF3E402E4316600E
:10133800566814F4003F0CBF3E402E435660966832
:1013480014F4801F0CBF3E402E439660D668A4025A
:1013580054BF3E402E43D6600133102B7FF44FAF6D
:1013680005B0BDE8F08F5E46D5E70126D3E7022633
:10137800D1E70326CFE700BF003C01400000024050
:10138800003802400AB1816170470904FBE7000098
:101398002DE9F341044608B901203FE00368DD0761
:1013A80010D4236898075AD423681A0700F19C8040
:1013B80023685B0700F1BA80A069002840F01B8110
:1013C80000202BE0A44B9A6802F00C02042A07D0F4
:1013D8009A6802F00C02082A0AD15B68590207D5FC
:1013E8009D4B1B689A03DCD56368002BD9D1D3E7E2
:1013F8006368994DB3F5803F13D12B6843F480336C
:101408002B60FFF7E7FA944D06462B689B03C8D478
:10141800FFF7E0FA801B6428F7D9032002B0BDE883
:10142800F081B3F5A02F04D12B6843F480232B60FF
:10143800E3E72A6822F480322A602A6822F48022AC
:101448002A60002BDDD1FFF7C5FA06462B689F03FB
:10145800A7D5FFF7BFFA801B6428F7D9DDE77E4BD5
:101468009A6812F00C0F07D09A6802F00C02082A4A
:1014780011D15B685E020ED4774B1A68950702D5C6
:10148800E268012A88D11A68216922F0F80242EA42
:10149800C1021A6088E7E268704BB2B101221A6093
:1014A800FFF798FA6C4D06462B68980707D52B6806
:1014B800226923F0F80343EAC2032B6074E7FFF7BD
:1014C80089FA801B0228EFD9A7E71A60FFF782FA8A
:1014D800614D06462B6899077FF566AFFFF77AFAE4
:1014E800801B0228F6D998E762695D4B7AB1012220
:1014F8001A60FFF76FFA584D06466B6F9F073FF566
:1015080057AFFFF767FA801B0228F6D985E71A60FC
:10151800FFF760FA504D06466B6F98077FF548AFA6
:10152800FFF758FA801B0228F6D976E74A4B1A6C5F
:1015380012F0805228D101921A6C42F080521A643B
:101548001B6C03F080530193019B0126454D2B68CA
:10155800D9051BD5A368404D012B27D12B6F43F02C
:1015680001032B67FFF736FA3B4D074641F28838EF
:101578002B6F9B0739D5002E3FF41EAF364A136CEC
:1015880023F08053136417E70026DFE72B6843F442
:1015980080732B60FFF71EFA07462B68DA05D9D44B
:1015A800FFF718FAC01B0228F7D936E7052B04D134
:1015B8002B6F43F004032B67D0E72A6F22F0010258
:1015C8002A672A6F22F004022A67002BCAD1FFF784
:1015D80001FA41F2883807462B6F9807CBD5FFF7F9
:1015E800F9F9C01B4045F7D917E7FFF7F3F9C01B16
:1015F8004045BDD911E7184DAB6803F00C03082B23
:1016080047D0194E00230228336035D1FFF7E2F99D
:1016180007462B68990129D4226AE3691343626A51
:1016280043EA8213E26A43EA0263A26A0A4C520856
:10163800013A43EA02436B6001233360FFF7CAF9BA
:10164800054623689A013FF5BBAEFFF7C3F9401B77
:101658000228F6D9E1E600BF003802400000474200
:10166800800E47420070004060004742FFF7B2F921
:10167800C01B0228CDD9D0E6FFF7ACF904462B6889
:101688009B017FF59DAEFFF7A5F9001B0228F6D94F
:10169800C3E601283FF4C2AEA868E36900F48002FB
:1016A8009A427FF479AE226A00F03F0393427FF4B6
:1016B80073AE626A47F6C073034093427FF46CAE20
:1016C800A26A00F4403393427FF466AEE36A00F006
:1016D8007060C01A18BF0120A0E600BF134908B502
:1016E8008B6803F00C03042B03D0082B03D010489D
:1016F80008BD104808BD4A684B68496813F4800360
:1017080014BF0C480A48C1F3881118BF002302F01F
:101718003F02A1FB0001FEF78BFF044B5B68C3F39C
:10172800014301335B00B0FBF3F008BD0038024011
:101738000024F40000127A002DE9F0410D46044619
:1017480010B90120BDE8F081444B1A6802F00F027D
:101758008A4229D321688F072ED4C80741D43F4B2A
:101768001A6802F00F02954267D3226851076DD4B8
:10177800130707D53A4A2169936823F4604343EA7B
:10178800C1039360FFF7AAFF354B364A9B68C3F342
:101798000313D35CD840344B1860344B1868FFF7F8
:1017A800CFF80020BDE8F081CAB21A701B6803F0B8
:1017B8000F039942C5D1CDE7294B11F0040F1EBF85
:1017C8009A6842F4E0529A600E0742BF9A6842F45F
:1017D80060429A609A68A06822F0F00202439A6018
:1017E800BBE762681E4B012A1DD11B6813F4003F3A
:1017F800A7D01B4EB36823F003031343B360FFF76E
:10180800E9F841F288380746B368626803F00C03C8
:10181800B3EB820FA3D0FFF7DDF8C01B4045F3D927
:101828000320BDE8F081911E01291B6802D813F03E
:10183800007FDDE713F0020FDAE7EAB21A701B68DF
:1018480003F00F039D427FF47CAF8EE70449E06804
:101858008B6823F4E05303438B6089E7003C024024
:1018680000380240702D00081000002004000020FD
:10187800044B054A9B68C3F38223D35C034A106870
:10188800D840704700380240802D00081000002022
:10189800044B054A9B68C3F34233D35C034A106880
:1018A800D840704700380240802D00081000002002
:1018B800036A23F001030362036A70B5446882690E
:1018C8000D6822F073022A438D6823F002032B432C
:1018D8000A4DA8420BD1CD688E6923F008032B432B
:1018E8004D6924F44074354323F004032C434460C9
:1018F80082614A684263036270BD00BF0000014014
:10190800036A23F480730362036A70B54468C2698A
:101918000D6822F073022A438D6823F4007343EAAA
:1019280005230B4DA8420DD1CD688E6923F40063C1
:1019380043EA05234D6924F44054354323F4806376
:1019480044EA05144460C2614A68C263036270BD18
:1019580000000140036A23F480530362036A30B530
:101968004468C2690D6822F4E64242EA05228D689D
:1019780023F4005343EA0533064DA84202BF4D69DC
:1019880024F4804444EA85144460C2614A680264CD
:10199800036230BD000001407047704770477047D0
:1019A800704703681A69910710B504460ED5DA68BE
:1019B80092070BD56FF002021A619B6901229B07FF
:1019C800027777D0FFF7EAFF0023237723681A69A5
:1019D800500710D5DA6851070DD56FF004021A6167
:1019E8009B69022213F4407F2277204668D0FFF7D4
:1019F800D5FF0023237723681A6912070FD5DA6801
:101A080010070CD56FF008021A61DB6904229907E8
:101A1800227720465AD0FFF7C1FF00232377236897
:101A28001A69D20610D5DA68D0060DD56FF0100203
:101A38001A61DB69082213F4407F227720464BD0D5
:101A4800FFF7ACFF0023237723681A69D10708D56D
:101A5800DA68D20705D56FF001021A61204600F056
:101A680067FC23681A69100608D5DA68110605D5D7
:101A78006FF080021A61204600F049FA23681A695B
:101A8800520608D5DA68500605D56FF040021A618B
:101A98002046FFF785FF23681A69910622D5DA6880
:101AA80092061FD56FF0200220461A61BDE810404B
:101AB80000F02CBAFFF771FF2046FFF770FF83E7AD
:101AC800FFF76BFF2046FFF76AFF92E7FFF765FF16
:101AD8002046FFF764FFA0E7FFF75FFF2046FFF708
:101AE8005EFFAFE710BD0000244A036890420ED0A5
:101AF800B0F1804F0BD0A2F57C42904207D002F59E
:101B08008062904203D002F58062904215D14A6803
:101B180023F070031343194A904219D0B0F1804F53
:101B280016D0A2F57C42904212D002F58062904213
:101B38000ED002F5806290420AD0114A904207D036
:101B480002F58062904203D002F58062904203D190
:101B5800CA6823F4407313434A6923F0800313438C
:101B680003608B68C3620B688362044B984204BFAE
:101B78000B69036301234361704700BF0000014004
:101B88000040014010B50446A0B190F83D3003F084
:101B9800FF021BB980F83C2000F0B2FE022384F853
:101BA8003D302068211DFFF79FFF012384F83D3059
:101BB800002010BD012010BD10B50446A0B190F85A
:101BC8003D3003F0FF021BB980F83C20FFF7E4FE2C
:101BD800022384F83D302068211DFFF785FF01238B
:101BE80084F83D30002010BD012010BD036A23F0A9
:101BF80010030362036A70B5446882690D6822F4B1
:101C0800E64242EA05228D6823F0200343EA0513E1
:101C18000B4DA8420DD1CD688E6923F0800343EAAD
:101C280005134D6924F44064354323F0400344EA26
:101C38008504446082614A688263036270BD00BFA4
:101C48000000014038B590F83C30012B04464FF0B5
:101C5800020025D0012384F83C3084F83D000C2A8A
:101C680018D8DFE802F0071717171E1717172F17CE
:101C7800171740002068FFF71BFE236809699A6957
:101C880042F008029A619A6922F004029A619A69FC
:101C98000A439A610123002084F83D3084F83C000F
:101CA80038BD2068FFF7A2FF236809699A6942F4E2
:101CB80000629A619A6922F480629A619A6942EA9A
:101CC8000122E6E72068FFF71BFE23680969DA6945
:101CD80042F00802DA61DA6922F00402DA61DA69AC
:101CE8000A43DA61D6E72068FFF734FE23680969FA
:101CF800DA6942F40062DA61DA6922F48062DA6150
:101D0800DA6942EA0122ECE710B584680A4324F450
:101D18007F4442EA03232343836010BD90F83C309C
:101D2800012B70B504464FF0020019D084F83D002D
:101D38002068012384F83C30836823F47F4323F030
:101D4800770383600B68402B65D015D8102B0CD017
:101D580007D853B10123002084F83D3084F83C00B3
:101D680070BD202B01D0302BF4D1826843F00703DB
:101D780022F0700213431AE0602B34D019D8502B8C
:101D8800E8D14A68CE68016A056A25F0010505624E
:101D9800836921F00A0123F0F00343EA06130A439A
:101DA80083610262836823F0700343F05703836002
:101DB800D0E7702B0CD0B3F5005FCBD1CB684A6865
:101DC8008968FFF7A1FF2268936843F4804308E01D
:101DD800CB684A688968FFF797FF2268936843F0E1
:101DE80077039360B6E74D68CE68016A21F0100169
:101DF80001628269036A22F4704223F0A00343EA75
:101E0800051342EA063282610362836823F0700395
:101E180043F06703CBE74A68CE68016A056A25F094
:101E280001050562836921F00A0123F0F00343EA02
:101E380006130A4383610262836823F0700343F048
:101E48004703B4E7036A01F01F0110B501248C4071
:101E580023EA04030362036A8A401A43026210BD3C
:101E680010B5044601220068FFF7ECFF2368094A11
:101E7800934202BF5A6C42F400425A649A6802F0D4
:101E88000702062A1EBF1A6842F001021A600020E3
:101E980010BD00BF0000014090F83C30012B30B568
:101EA8004FF002032DD080F83D3003680D685C6860
:101EB80024F0700401222C4380F83C209A685C606E
:101EC800114CA34212D0B3F1804F0FD0A4F57C443B
:101ED800A3420BD004F58064A34207D004F58064C4
:101EE800A34203D004F59A34A34204D1496822F0EE
:101EF80080020A439A60012380F83D30002380F86D
:101F08003C30184630BD00BF0000014070477047A4
:101F180038B50368C1681A69044622F440520A4376
:101F28001A612569A268D968C0692A43656921F4DC
:101F380016412A4321F00C0102430A43DA605A6928
:101F4800A16922F440720A43B0F5004F5A61254A4C
:101F580029D1934203D002F58062934220D1FFF742
:101F680097FC6268256892184FF000034FF019013A
:101F78005B41A0FB0101FEF75BFB6421B0FBF1F4C0
:101F880001FB1403DB003233B3FBF1F303F0070268
:101F98005B0002EB041203F4F8731344AB6038BD22
:101FA800FFF766FCDDE7934202D00F4A934216D151
:101FB800FFF76EFC6368256819219A00A0FB0101F0
:101FC8009B0FFEF735FB6422B0FBF2F102FB110315
:101FD8001B013233B3FBF2F303EB0113DEE7FFF728
:101FE80047FCE7E7001001400014014010B5044623
:101FF80040B390F8393003F0FF021BB980F838205D
:1020080000F0CEFD2268242384F83930D36823F405
:102018000053D3602046FFF77BFF23681A6922F438
:1020280090421A615A6922F02A025A61DA6842F427
:102038000052DA6000202023E06384F8393084F805
:102048003A3010BD012010BD30B585B000211022F6
:10205800684600F02BFE3748374900244FF44033D8
:1020680080E81A00354B836201250823056105764F
:1020780080F82040C462C460C36180F83050456174
:10208800FEF7AEFC08B100F0A5FB694629480294AA
:102098008DE83000FEF714FE08B100F09BFB01222A
:1020A8000223694623488DE80C00FEF709FE08B1B3
:1020B80000F090FB0424032369461E480094019312
:1020C800FEF7FEFD08B100F085FB082369461948B4
:1020D8008DE81800FEF7F4FD08B100F07BFB09233A
:1020E8000524694613488DE81800FEF7E9FD08B194
:1020F80000F070FB0094694606240E480194FEF730
:10210800DFFD08B100F066FB009469460724094822
:102118000194FEF7D5FD08B100F05CFB0823694681
:10212800044800940193FEF7CBFD08B100F052FB80
:1021380005B030BD50000020002001400100000F14
:1021480070B5064688B01422002103A800F0AEFD41
:102158003268284B9A424BD1002503F58C33009501
:102168005A6C254842F480725A645A6C02F48072A0
:102178000092009A01951A6B42F001021A631A6BD9
:1021880002F001020192019A02951A6B42F00202D2
:102198001A631B6B03F0020302930324029B04944B
:1021A800F32303A90393FFF71FF81448039403A923
:1021B80004940595124CFFF717F8124BA56084E8B4
:1021C80028004FF4806323614FF4006363614FF488
:1021D8000053A36120464FF48073E560E3612562F4
:1021E8006562FEF78FFE08B100F0F4FAB463A663E7
:1021F80008B070BD00200140000002400004024009
:10220800980000201064024007B50B4B0022019291
:10221800196B41F4800119631B6B03F4800301936C
:1022280011463820019BFEF7FFFD3820FEF730FEEF
:1022380003B05DF804FB00BF00380240F0B514227B
:102248008BB00DEB0200002100F030FD0024264B7E
:1022580001941A6B254F264D42F004021A631A6B3B
:1022680002F004020192019A02941A6B42F0800271
:102278001A631A6B02F080020292029A03941A6B94
:1022880042F001021A631A6B02F001020392039AE8
:1022980004941A6B42F002021A631B6B03F00203E8
:1022A8000493224638464FF44071049BFFF76AF8BE
:1022B800224628462821FFF765F801264FF4407387
:1022C80005A938460593069607940894FEF78CFFEF
:1022D800282305A928460593069607940894FEF72F
:1022E80083FF0BB0F0BD00BF003802400000024081
:1022F80000040240094B1B889842A8BF184699421F
:10230800A8BF1946064B1B68D863064B1B68596360
:10231800054B1860054B1960704700BF0C00002082
:10232800FC0100207C010020340000203000002047
:10233800194B1A4AD3ED007ABFEE007AF4EEC77A49
:10234800F1EE10FA10B5164C0EDDB7EE007AF4EE89
:10235800C77AF1EE10FA07D52168106801F5FA710D
:1023680000F5FA70FFF7C6FF11684CF24F33994237
:1023780004DD0C4B21681888FFF7BCFF21684CF27C
:102388004F33994206DD074B10681988BDE81040A5
:10239800FFF7B0BF10BD00BF2C01002034000020A3
:1023A800300000200C00002010B5F5EEC02AF1EE38
:1023B80010FA2DED028B3C4B3C4C11DDB5EE400A7A
:1023C800F1EE10FA44D172EE027AB1EE007AE2EE42
:1023D800877A32EE822AC3ED007A87EE827A17E096
:1023E800B5EEC00AF1EE10FA32DDF5EE402AF1EE54
:1023F80010FA2DD1F8EE007A60EEA77AB9EE007ADD
:10240800E0EE077A70EE200AC3ED007A87EEA07A34
:1024180084ED007A9FED268AD4ED007A67EE887AFB
:1024280017EE900AFEF738F841EC100B00F046FC66
:1024380051EC100BFEF7ACF807EE100AC7EE087A5D
:10244800BDEC028B1B4BC4ED007AC3ED007A10BDC6
:10245800B5EEC02AF1EE10FA0CDDF0EE007AB0EE1F
:10246800617AA2EE277A32EE212AF0EE477A83EDDE
:10247800007AB2E7F5EEC00AF1EE10FA0CDDF8EEDC
:10248800007AB0EE417A90EEA77A70EE810AF0EE0B
:10249800477A83ED007AB9E771EEC17A31EE812A85
:1024A800C3ED007A99E700BF4C00002048000020E7
:1024B8000000C8423800002030B595B03022002115
:1024C80008A800F0F3FB0021142203A800F0EEFB9B
:1024D80000241B4B01941A6C42F080521A641B6C46
:1024E80003F080530193019B164B02941A6842F43F
:1024F80040421A601B6803F440430293029B012385
:1025080008934FF4803309934FF480030225642223
:102518000F9308A804231093119213930E95129504
:10252800FEF736FF0F23039303214FF4805303A8CC
:102538000495059406930794FFF7FEF815B030BD8F
:10254800003802400070004070B52DED048BFEF796
:102558001BFAFFF7B1FFFFF771FEFFF755FE00F01A
:1025680083F900F061FA00F0AFFAFFF76DFD00F0B3
:10257800FBFA00F0ABF9082281498248824D834C6E
:10258800DFED839ADFED838AFEF7D0FA00224FF45D
:1025980080718148FEF7F6FE01224FF400717E48F3
:1025A800FEF7F0FE012220217C48FEF7EBFE002218
:1025B80008217A48FEF7E6FE08212846FFF750FC76
:1025C80000212046FFF74CFC2A6842F21073D363BF
:1025D80022685363724D6A4E9FED728A9FED729A1C
:1025E800012436F8143007EE903AF8EE677AF4EEE4
:1025F800C87AF1EE10FA40F29B80F4EEE87AF1EE38
:1026080010FA40F19880F4EEC87AF1EE10FA40F32F
:10261800928087EEA87A67EE097A17EE900AFDF79E
:102628003BFF41EC100B00F049FB51EC100BFDF7A0
:10263800AFFF07EE100AC7EE097A0134072CE5EC64
:10264800017ACED1594BC3ED007A594B93ED010A6B
:10265800B5EEC00AF1EE10FA22DCD3ED027AF5EEFF
:10266800C07AF1EE10FA1BDCD3ED037AF5EEC07AEE
:10267800F1EE10FA14DCD3ED047AF5EEC07AF1EE3F
:1026880010FA0DDCD3ED057AF5EEC07AF1EE10FA0A
:1026980006DCD3ED067AF5EEC07AF1EE10FA6CDDC1
:1026A800D3ED062A93ED052AD3ED041A93ED031A08
:1026B800D3ED020AFFF778FE3E4B93ED008A3E4BBE
:1026C800B8EEC88AD3ED007A3C4B38EE278A83ED02
:1026D800008A3B4BD3ED007AF8EEE77A67EE887A0A
:1026E80017EE900AFDF7D8FE41EC100B00F0E6FA61
:1026F80051EC100BFDF724FF324B0028B5EEC08AD1
:10270800B8BF4042F1EE10FA186017DD186849F6B4
:102718004041081AFFF7EEFD2B4B18882B4B1B681E
:1027280098427FF757AF2A4B1968FFF7E3FD51E747
:10273800F0EE697A81E7F7EE007A7EE7244A0ED553
:10274800196849F64040411AFFF7D4FD1E4B198815
:10275800136899427FF73EAF1C4B1868E5E71B4B9F
:10276800106819680144022091FBF0F101F59C51B1
:102778000831196011600846D7E70021FBE700BF60
:10278800F800002050000020FC0100207C010020FF
:102798000000000000C05A4500000240000402404A
:1027A800100100200000FA430000C8423401002054
:1027B8000C01002040000020380000202C010020DF
:1027C800080000203C0000200E00002034000020FB
:1027D800300000207047000082B00C4B00210091AF
:1027E8005A6C42F480425A645A6C02F48042009255
:1027F800009A01911A6C42F080521A641B6C03F023
:1028080080530193019B02B0704700BF003802401B
:102818007047FEE7FEE7FEE7FEE770477047704740
:10282800FEF7CCB808B50448FFF7BBF80348BDE885
:102838000840FFF7B6B800BFBC0100203C010020EB
:102848000148FEF717BC00BF98000020054BD3F8DD
:10285800882042F47002C3F888204FF000629A6022
:10286800704700BF00ED00E07FB51022002102A8EC
:1028780000F01CFA1348144A00230093019380E8DF
:102888000C008360C360036143618361FFF77AF9D9
:1028980008B1FFF79FFF4FF4805302A9094802933C
:1028A800FFF73CFA08B1FFF795FF00236946054892
:1028B80000930193FFF7F0FA08B1FFF78BFF07B019
:1028C8005DF804FBBC010020000001400A480B49E8
:1028D80008B5632380E80A0042F20F720023836080
:1028E800C26003618361FFF74DF918B1BDE8084084
:1028F800FFF770BF08BD00BF3C0100200044014045
:102908001FB50368244A934213D1244B0022009236
:10291800596C41F0010159645B6C03F001030093A9
:10292800009B11461920FEF77FFA1920FEF7B0FA2E
:102938000EE0B3F1804F0ED100230193174B1A6CB0
:1029480042F001021A641B6C03F001030193019B1E
:1029580005B05DF804FB124A93420CD100230293A0
:102968000E4B1A6C42F002021A641B6C03F002034D
:102978000293029BECE70B4A9342E9D1074B0022F2
:102988000392596C41F4003159645B6C03F40033D1
:102998000393039BC5E700BF0000014000380240D5
:1029A800000400400044014010B5044688B01422D9
:1029B800002103A800F07AF92368B3F1804F18D1F9
:1029C80000230193154B1A6B42F002021A631B6B2A
:1029D80003F002030193019B4FF4806303930223E6
:1029E8000493012303A90E480793FEF7FDFB08B0E3
:1029F80010BD0C4A9342FAD100230293074B1A6B7D
:102A080042F002021A631B6B03F002030293029B5B
:102A18001023039302230493E4E700BF0038024025
:102A2800000402400004004010B58EB010220021BE
:102A380003A800F03BF900241C220DEB02002146FC
:102A48000194029400F032F91E4804234FF08042AA
:102A580080E80C004CF24F338460C36004618461E9
:102A6800FFF790F808B1FFF7B5FE4FF4805303A9BC
:102A780014480393FFF752F908B1FFF7ABFE11486A
:102A8800FFF79AF808B1FFF7A5FE002401A90D4841
:102A980001940294FFF700FA08B1FFF79BFE602348
:102AA800082207A907480793089409940B94FFF78D
:102AB800C9F808B1FFF78EFE0248FFF775FF0EB0A0
:102AC80010BD00BFFC01002010B58EB010220021FF
:102AD80003A800F0EBF800241C220DEB02002146AD
:102AE8000194029400F0E2F81D481E4A8460042311
:102AF80080E80C004CF24F33C36004618461FFF737
:102B080041F808B1FFF766FE4FF4805303A9144853
:102B18000393FFF703F908B1FFF75CFE1048FFF7CE
:102B28004BF808B1FFF756FE002401A90C480194A0
:102B38000294FFF7B1F908B1FFF74CFE60230022B9
:102B480007A907480793089409940B94FFF77AF8A4
:102B580008B1FFF73FFE0248FFF726FF0EB010BD91
:102B68007C0100200004004008B50B480B4B4FF4D3
:102B7800E13E80E808400C2200238360C3600361C3
:102B880042618361C361FFF731FA18B1BDE80840BB
:102B9800FFF720BE08BD00BF3C02002000440040F3
:102BA80010B5044688B01422002103A800F07EF86E
:102BB8002268154B9A4224D103F5FA33002101917A
:102BC8001A6C124842F400321A641A6C02F4003289
:102BD8000192019A02911A6B42F001021A631B6B6F
:102BE80003F001030293029B0C2303930223049333
:102BF800012305930323069303A907230793FEF7ED
:102C0800F3FA08B010BD00BF0044004000000240C5
:102C1800DFF834D0002103E00C4B5B5843500431FB
:102C28000B480C4B42189A42F6D30B4A02E0002399
:102C380042F8043B094B9A42F9D3FFF707FE00F02C
:102C480011F8FFF781FC704700000220982D00085A
:102C58000000002014000020140000207C02002046
:102C6800FEE7000070B50D4E0D4CA41BA410002506
:102C7800A54209D10B4E0C4C00F066F8A41BA41019
:102C88000025A54205D170BD56F825309847013575
:102C9800EEE756F8253098470135F2E7902D000801
:102CA800902D0008902D0008942D0008024403463A
:102CB800934200D1704703F8011BF9E751EC100B60
:102CC800F8B5C1F30A55A5F2FF34132C0B460F468D
:102CD80017DC002C09DA013401F0004303D143F07A
:102CE8007F5343F44013002128E0164A2241114241
:102CF80000D180B14FF4002323413B4423EA02036F
:102D0800F1E7332C0ADDB4F5806F04D110EE102AF8
:102D18000B46FDF763FA41EC100BF8BDA5F2134220
:102D28004FF0FF35D5402842F5D0C4F133040122D5
:102D3800A240121828BF013322EA050108461946A5
:102D4800E9E700BFFFFF0F00F8B500BFF8BC08BCFB
:102D58009E467047F8B500BFF8BC08BC9E46704751
:102D68000006101600061016000000000000000003
:102D78000102030406070809000000000102030419
:082D8800E0D8FF7F010000000C
:042D9000BD01000879
:042D94009901000899
:102D98000100000010000000102700004FC310279A
:042DA8000024F4000F
:0400000508002C19AA
:00000001FF
